:1000000012C021C020C01FC01EC01DC01CC01BC00C
:100010001AC019C018C017C016C015C014C013C02C
:1000200012C011C010C011241FBECFE5D4E0DEBF46
:10003000CDBF20E0A0E6B0E001C01D92A036B2071F
:10004000E1F72BD033C0DCCF8FEF87BB14BA85BB71
:10005000089581E088BBEFE4F3EC3197F1F700C03D
:10006000000018BAEFE4F3EC3197F1F700C000009C
:100070009999F0CF089582E088BBEFE4F3EC3197D3
:10008000F1F700C0000018BAEFE4F3EC3197F1F794
:1000900000C000009899F0CF0895D6DF989902C06B
:1000A000D8DFFCCF9999FACFE6DFF8CFF894FFCFED
:00000001FF
