S00C0000504B5F332E73726563EB
S113000012C019C018C017C016C015C014C013C040
S113001012C011C010C00FC00EC00DC00CC00BC068
S11300200AC009C008C011241FBECFE5D4E0DEBF5A
S1130030CDBF3DD045C0E4CF8FEF87BB14BA85BB9D
S113004008958FE493EC0197F1F700C00000989BAA
S113005004D09999F6CF16D0F4CF81E088BBEFE4B1
S1130060F3EC3197F1F700C0000018BAEFE4F3ECB9
S11300703197F1F700C00000999B03C09899EECF27
S1130080E0DF089582E088BBEFE4F3EC3197F1F709
S113009000C0000018BAEFE4F3EC3197F1F700C0A8
S11300A00000989B03C09999EECFCBDF0895C4DF7D
S11300B0989902C0D2DFFCCF9999FACFE3DFF8CF49
S10700C0F894FFCFDE
S9030000FC
